{
  "contractName": "Faucet",
  "abi": [
    {
      "inputs": [],
      "name": "numOfFunders",
      "outputs": [
        {
          "internalType": "uint256",
          "name": "",
          "type": "uint256"
        }
      ],
      "stateMutability": "view",
      "type": "function",
      "constant": true
    },
    {
      "inputs": [],
      "name": "owner",
      "outputs": [
        {
          "internalType": "address",
          "name": "",
          "type": "address"
        }
      ],
      "stateMutability": "view",
      "type": "function",
      "constant": true
    },
    {
      "inputs": [],
      "name": "test3",
      "outputs": [
        {
          "internalType": "uint256",
          "name": "",
          "type": "uint256"
        }
      ],
      "stateMutability": "pure",
      "type": "function",
      "constant": true
    },
    {
      "inputs": [],
      "name": "testNum",
      "outputs": [
        {
          "internalType": "uint256",
          "name": "",
          "type": "uint256"
        }
      ],
      "stateMutability": "view",
      "type": "function",
      "constant": true
    },
    {
      "stateMutability": "payable",
      "type": "receive",
      "payable": true
    },
    {
      "inputs": [],
      "name": "emitLog",
      "outputs": [
        {
          "internalType": "bytes32",
          "name": "",
          "type": "bytes32"
        }
      ],
      "stateMutability": "pure",
      "type": "function",
      "constant": true
    },
    {
      "inputs": [
        {
          "internalType": "address",
          "name": "newOwner",
          "type": "address"
        }
      ],
      "name": "transferOwnership",
      "outputs": [],
      "stateMutability": "nonpayable",
      "type": "function"
    },
    {
      "inputs": [],
      "name": "addFunds",
      "outputs": [],
      "stateMutability": "payable",
      "type": "function",
      "payable": true
    },
    {
      "inputs": [],
      "name": "test1",
      "outputs": [],
      "stateMutability": "nonpayable",
      "type": "function"
    },
    {
      "inputs": [],
      "name": "test2",
      "outputs": [],
      "stateMutability": "nonpayable",
      "type": "function"
    },
    {
      "inputs": [
        {
          "internalType": "uint256",
          "name": "withdrawAmount",
          "type": "uint256"
        }
      ],
      "name": "withdraw",
      "outputs": [],
      "stateMutability": "payable",
      "type": "function",
      "payable": true
    },
    {
      "inputs": [],
      "name": "getAllFunders",
      "outputs": [
        {
          "internalType": "address[]",
          "name": "",
          "type": "address[]"
        }
      ],
      "stateMutability": "view",
      "type": "function",
      "constant": true
    }
  ],
  "bytecode": "0x608060405234801561001057600080fd5b50336000806101000a81548173ffffffffffffffffffffffffffffffffffffffff021916908373ffffffffffffffffffffffffffffffffffffffff1602179055506103e8600181905550610b91806100696000396000f3fe6080604052600436106100a05760003560e01c80638da5cb5b116100645780638da5cb5b1461014c578063a26759cb14610177578063ae28f1ed14610181578063af7f2c9b146101ac578063f2fde38b146101d7578063f42c13bf14610200576100a7565b80630a8e8e01146100ac5780632e1a7d4d146100d757806366e41cb7146100f35780636b59084d1461010a5780636fbbb55d14610121576100a7565b366100a757005b600080fd5b3480156100b857600080fd5b506100c161022b565b6040516100ce919061096c565b60405180910390f35b6100f160048036038101906100ec91906107b3565b610234565b005b3480156100ff57600080fd5b506101086102cb565b005b34801561011657600080fd5b5061011f61035b565b005b34801561012d57600080fd5b506101366103eb565b60405161014391906108ef565b60405180910390f35b34801561015857600080fd5b50610161610531565b60405161016e91906108d4565b60405180910390f35b61017f610555565b005b34801561018d57600080fd5b5061019661065b565b6040516101a3919061096c565b60405180910390f35b3480156101b857600080fd5b506101c1610661565b6040516101ce919061096c565b60405180910390f35b3480156101e357600080fd5b506101fe60048036038101906101f9919061078a565b610667565b005b34801561020c57600080fd5b50610215610738565b6040516102229190610911565b60405180910390f35b60006064905090565b8067016345785d8a0000811115610280576040517f08c379a00000000000000000000000000000000000000000000000000000000081526004016102779061094c565b60405180910390fd5b3373ffffffffffffffffffffffffffffffffffffffff166108fc839081150290604051600060405180830381858888f193505050501580156102c6573d6000803e3d6000fd5b505050565b60008054906101000a900473ffffffffffffffffffffffffffffffffffffffff1673ffffffffffffffffffffffffffffffffffffffff163373ffffffffffffffffffffffffffffffffffffffff1614610359576040517f08c379a00000000000000000000000000000000000000000000000000000000081526004016103509061092c565b60405180910390fd5b565b60008054906101000a900473ffffffffffffffffffffffffffffffffffffffff1673ffffffffffffffffffffffffffffffffffffffff163373ffffffffffffffffffffffffffffffffffffffff16146103e9576040517f08c379a00000000000000000000000000000000000000000000000000000000081526004016103e09061092c565b60405180910390fd5b565b6060600060025467ffffffffffffffff811115610431577f4e487b7100000000000000000000000000000000000000000000000000000000600052604160045260246000fd5b60405190808252806020026020018201604052801561045f5781602001602082028036833780820191505090505b50905060005b600254811015610529576004600082815260200190815260200160002060009054906101000a900473ffffffffffffffffffffffffffffffffffffffff168282815181106104dc577f4e487b7100000000000000000000000000000000000000000000000000000000600052603260045260246000fd5b602002602001019073ffffffffffffffffffffffffffffffffffffffff16908173ffffffffffffffffffffffffffffffffffffffff1681525050808061052190610a17565b915050610465565b508091505090565b60008054906101000a900473ffffffffffffffffffffffffffffffffffffffff1681565b6000339050600360008273ffffffffffffffffffffffffffffffffffffffff1673ffffffffffffffffffffffffffffffffffffffff16815260200190815260200160002060009054906101000a900460ff16610658576001600360008373ffffffffffffffffffffffffffffffffffffffff1673ffffffffffffffffffffffffffffffffffffffff16815260200190815260200160002060006101000a81548160ff0219169083151502179055508060046000600254815260200190815260200160002060006101000a81548173ffffffffffffffffffffffffffffffffffffffff021916908373ffffffffffffffffffffffffffffffffffffffff1602179055505b50565b60015481565b60025481565b60008054906101000a900473ffffffffffffffffffffffffffffffffffffffff1673ffffffffffffffffffffffffffffffffffffffff163373ffffffffffffffffffffffffffffffffffffffff16146106f5576040517f08c379a00000000000000000000000000000000000000000000000000000000081526004016106ec9061092c565b60405180910390fd5b806000806101000a81548173ffffffffffffffffffffffffffffffffffffffff021916908373ffffffffffffffffffffffffffffffffffffffff16021790555050565b60007f48656c6c6f20576f726c64000000000000000000000000000000000000000000905090565b60008135905061076f81610b2d565b92915050565b60008135905061078481610b44565b92915050565b60006020828403121561079c57600080fd5b60006107aa84828501610760565b91505092915050565b6000602082840312156107c557600080fd5b60006107d384828501610775565b91505092915050565b60006107e883836107f4565b60208301905092915050565b6107fd816109d1565b82525050565b61080c816109d1565b82525050565b600061081d82610997565b61082781856109af565b935061083283610987565b8060005b8381101561086357815161084a88826107dc565b9750610855836109a2565b925050600181019050610836565b5085935050505092915050565b610879816109e3565b82525050565b600061088c6021836109c0565b915061089782610a8f565b604082019050919050565b60006108af6024836109c0565b91506108ba82610ade565b604082019050919050565b6108ce81610a0d565b82525050565b60006020820190506108e96000830184610803565b92915050565b600060208201905081810360008301526109098184610812565b905092915050565b60006020820190506109266000830184610870565b92915050565b600060208201905081810360008301526109458161087f565b9050919050565b60006020820190508181036000830152610965816108a2565b9050919050565b600060208201905061098160008301846108c5565b92915050565b6000819050602082019050919050565b600081519050919050565b6000602082019050919050565b600082825260208201905092915050565b600082825260208201905092915050565b60006109dc826109ed565b9050919050565b6000819050919050565b600073ffffffffffffffffffffffffffffffffffffffff82169050919050565b6000819050919050565b6000610a2282610a0d565b91507fffffffffffffffffffffffffffffffffffffffffffffffffffffffffffffffff821415610a5557610a54610a60565b5b600182019050919050565b7f4e487b7100000000000000000000000000000000000000000000000000000000600052601160045260246000fd5b7f4f6e6c79206f776e65722063616e2063616c6c20746869732066756e6374696f60008201527f6e00000000000000000000000000000000000000000000000000000000000000602082015250565b7f63616e206e6f74207769746864726177206d6f7265207468616e20302e31206560008201527f7468657200000000000000000000000000000000000000000000000000000000602082015250565b610b36816109d1565b8114610b4157600080fd5b50565b610b4d81610a0d565b8114610b5857600080fd5b5056fea26469706673582212204aaf8fff37f80de9b7efc7a574277a572ed22fbfab7cdda190efe5fc239ee64e64736f6c63430008020033",
  "immutableReferences": {},
  "source": "pragma solidity >=0.4.22 <0.9.0;\nimport \"./Owned.sol\";\nimport \"./Logger.sol\";\nimport \"./IFaucet.sol\";\n\n// pure, view: - read-only call, no gas fee\n// view: it indicates that the function will not alter the storage state in any way\n// pure: event more strict, indicating that it won't even read the storage state\n\n// transaction: can generate state changes and require gas fee\n\n// to talk to the node on the network you can make JSON-RPC http calls\n\n// const instance = await Faucet.deployed()\n// instance.addFunds({ value: '2000000000000000000', from: accounts[0] })\n// instance.addFunds({ value: '2000000000000000000', from: accounts[1] })\n// instance.withdraw('500000000000000000', { from: accounts[1] })\n// instance.getFunderAtIndex(0)\n// instance.getAllFunders()\n// instance.test1({from: accounts[1]})\n\ncontract Faucet is Owned, Logger, IFaucet {\n    // private: can be accessible only within the smart contract\n    // internal: can be accessible within smart contract and also derived smart contract\n    uint256 public numOfFunders;\n    mapping(address => bool) private funders;\n    mapping(uint256 => address) private lutFunders;\n\n    modifier limitWithdraw(uint256 withdrawAmount) {\n        require(\n            withdrawAmount <= 100000000000000000,\n            \"can not withdraw more than 0.1 ether\"\n        );\n        _;\n    }\n\n    // this is special function, it's called when you make tx that doesn't specify function's name to call\n    // external function are part of the contract interface which mean they can be called via contracts and other tx\n    receive() external payable {}\n\n    function emitLog() public pure override returns (bytes32) {\n        return \"Hello World\";\n    }\n\n    function transferOwnership(address newOwner) external onlyOwner {\n        owner = newOwner;\n    }\n\n    function addFunds() external payable override {\n        address funder = msg.sender;\n\n        if (!funders[funder]) {\n            funders[funder] = true;\n            lutFunders[numOfFunders] = funder;\n        }\n    }\n\n    function test1() external onlyOwner {\n        // some managing stuff that only admin should have access to\n    }\n\n    function test2() external onlyOwner {\n        // some managing stuff that only admin should have access to\n    }\n\n    function withdraw(uint256 withdrawAmount)\n        external\n        payable\n        override\n        limitWithdraw(withdrawAmount)\n    {\n        payable(msg.sender).transfer(withdrawAmount);\n    }\n\n    function getAllFunders() external view returns (address[] memory) {\n        address[] memory _funders = new address[](numOfFunders);\n\n        for (uint256 i = 0; i < numOfFunders; i++) {\n            _funders[i] = lutFunders[i];\n        }\n\n        return _funders;\n    }\n\n    // function getFunderAtIndex(uint8 index) external view returns (address) {\n    //     return funders[index];\n    // }\n}\n",
  "sourcePath": "/Volumes/Data/code/udemy/ethereum-nextjs/contracts/FaucetContract.sol",
  "compiler": {
    "name": "solc",
    "version": "0.8.2+commit.661d1103.Emscripten.clang"
  },
  "schemaVersion": "3.4.4",
  "updatedAt": "2022-01-15T09:20:36.560Z",
  "networkType": "ethereum",
  "devdoc": {
    "kind": "dev",
    "methods": {},
    "version": 1
  },
  "userdoc": {
    "kind": "user",
    "methods": {},
    "version": 1
  }
}