{
  "contractName": "Memory",
  "abi": [
    {
      "inputs": [
        {
          "internalType": "uint256",
          "name": "testNum",
          "type": "uint256"
        }
      ],
      "name": "test",
      "outputs": [
        {
          "internalType": "uint256",
          "name": "",
          "type": "uint256"
        }
      ],
      "stateMutability": "pure",
      "type": "function"
    }
  ],
  "bytecode": "0x608060405234801561001057600080fd5b5061011b806100206000396000f3fe6080604052348015600f57600080fd5b506004361060285760003560e01c806329e99f0714602d575b600080fd5b60436004803603810190603f9190607b565b6057565b604051604e919060ae565b60405180910390f35b600060046040515050819050919050565b60008135905060758160d1565b92915050565b600060208284031215608c57600080fd5b60006098848285016068565b91505092915050565b60a88160c7565b82525050565b600060208201905060c1600083018460a1565b92915050565b6000819050919050565b60d88160c7565b811460e257600080fd5b5056fea2646970667358221220ee49eae4d579af0e3a4a5eb69082668537d8a0d73220ce6e40c53fe3ed3551cf64736f6c63430008020033",
  "immutableReferences": {},
  "source": "pragma solidity >=0.4.22 <0.9.0;\n\ncontract Memory {\n    function test(uint256 testNum) external pure returns (uint256) {\n        assembly {\n            let _num := 4\n            let _freeMemoryPointer := mload(0x40)\n        }\n\n        return testNum;\n    }\n}\n",
  "sourcePath": "/Volumes/Data/code/udemy/ethereum-nextjs/contracts/Memory.sol",
  "compiler": {
    "name": "solc",
    "version": "0.8.2+commit.661d1103.Emscripten.clang"
  },
  "schemaVersion": "3.4.4",
  "updatedAt": "2022-01-14T16:53:08.421Z",
  "devdoc": {
    "kind": "dev",
    "methods": {},
    "version": 1
  },
  "userdoc": {
    "kind": "user",
    "methods": {},
    "version": 1
  }
}